:020000040800F2
:10000000D0080020A902000893410008373B0008EF
:1000100091410008D71C00080154000800000000AE
:10002000000000000000000000000000AB440008D9
:10003000D91C00080000000095410008AD440008EC
:10004000C3020008C3020008C3020008C30200087C
:10005000C3020008C3020008C3020008C30200086C
:10006000C3020008C3020008C3020008C30200085C
:10007000C3020008C3020008C3020008C30200084C
:10008000C302000800000000C3020008C302000809
:10009000C3020008C3020008C3020008C30200082C
:1000A000C3020008C3020008C3020008C30200081C
:1000B000C302000829450008C3020008C302000863
:1000C000C3020008C3020008C3020008C3020008FC
:1000D000C3020008F5530008C3020008C302000869
:1000E000C3020008C3020008C3020008C3020008DC
:1000F000C3020008C3020008C30200080000000099
:1001000000000000C302000800000000C302000855
:10011000C302000800000000C3020008C302000878
:10012000C3020008C3020008C3020008C30200089B
:10013000C30200080000000000000000C302000825
:10014000C3020008C3020008000000000000000015
:10015000000000000000000000000000000000009F
:10016000000000000000000000000000C3020008C2
:10017000C3020008000000000000000000000000B2
:1001800000000000C30200080000000000000000A2
:10019000000000000000000000000000000000005F
:1001A0000000000000000000C3020008C3020008B5
:1001B000C3020008C3020008C302000800000000D8
:1001C00000000000C3020008000000000000000062
:1001D000C3020008C302000800F002F800F055F85E
:1001E0000AA090E8000C82448344AAF10107DA4592
:1001F00001D100F04AF8AFF2090EBAE80F0013F08F
:10020000010F18BFFB1A43F001031847B86C000038
:10021000D86C0000103A24BF78C878C1FAD85207C9
:1002200024BF30C830C144BF04680C607047000070
:100230000023002400250026103A28BF78C1FBD8EF
:10024000520728BF30C148BF0B607047662905F0D0
:10025000DB84642900F02481732900F0F8850020F4
:1002600070471FB505F0CBFC00F02CFE0400002009
:10027000002105F037FC401C60600020002105F0E3
:100280001BFCE0601FBD10B510BD01F0DDF811468C
:10029000FFF7E7FF05F090F901F004F903B4FFF769
:1002A000F2FF03BC01F048F90948804709480047BC
:1002B000FEE7FEE7FEE7FEE7FEE7FEE7FEE7FEE716
:1002C000FEE7FEE704480549054A064B7047000073
:1002D00019450008D9010008D0020020D0080020EC
:1002E000D0040020D004002053EA020C00F0698002
:1002F0002DE9F04B4FF00006002B1FBFB3FA83F53A
:1003000003FA05F424FA05F65E4012BF1643B2FA6A
:1003100082F502FA05F4C5F120051EBF22FA05FC9C
:1003200044EA0C04203556EA044C4FEA144418BF42
:10033000641C4FF000084FF00009904271EB030C71
:1003400039D3002919BFB1FA81F701FA07F6B0FADB
:1003500080F700FA07F6C7F120071EBF20FA07FC56
:1003600046EA0C062037B6FBF4FCA7EB0507103F66
:1003700007F01F0BCBF120060CFA0BFB2CFA06F64C
:1003800044BFB3460026202FA4BF5E464FF0000BAB
:100390005BEA060C08BF4FF0010B19EB0B09ABFB36
:1003A000027C48EB0608C01B06FB02CC0BFB03CC0F
:1003B00071EB0C01C1E70B46024641464846BDE8D9
:1003C000F08B13B54FF000004FF00001AFF3008049
:1003D000BDE81C40704700000FB41CB5074B06AACF
:1003E0007B4469460090059800F007FD00206946AF
:1003F00000F016FD1CBC5DF814FB00003D0A000077
:1004000070B5044685690068C10601D5302600E054
:100410002026C00707D070BDD4E90121304690479F
:10042000206A401C20626D1EF6D570BD70B5044672
:1004300085690078C00707D170BDD4E9012120206B
:100440009047206A401C20626D1EF6D570BD70B5C5
:100450000C460546012A05D02878800600D5EA69B1
:10046000002302E0012305E05B1C934202D2E05C22
:100470000028F9D1A869E618C01AA861286A1844AA
:1004800028622846FFF7BCFF04E0D5E9012114F8F3
:10049000010B9047B442F8D32846FFF7C7FF70BD61
:1004A0002DE9F0410646002410687529314616A54D
:1004B00010D0AFF30080002802DA404213A507E015
:1004C00031688A0701D512A502E0490704D511A5B4
:1004D000012401E0AFF3008000210A2206F1240785
:1004E00009E0B0FBF2FCB0FBF2F302FB1C00303081
:1004F00078541846491C0028F3D123462A46304632
:10050000BDE8F04100F00CBA000000002D00000032
:100510002B000000200000002DE9F05F8946044612
:100520004FF0000ADFF824B1FB44C0F820A02046B9
:10053000E168884700287DD0252806D0D4E901212C
:100540009047206A401C2062F1E700255F46204664
:10055000E16888472028064607DB312E05D2B81906
:1005600010F8200C08B10543F1E7A80701D525F0E4
:100570000405C4F81CA00027C4F818A02A2E09D02E
:10058000304604F066FF38B304EB8708303EC8F805
:10059000186019E059F8041B204604EB87029161AA
:1005A000E1688847012F064618D1E069002820DA63
:1005B00025F020051DE0D8F8180000EB800006EBC0
:1005C00040003038C8F818002046E16888470646E1
:1005D00004F03FFF0028EED1012F0AD02E2E08D1C3
:1005E0002046E16888477F1C0646022F45F020051B
:1005F000C4DBA069002803DA404245F00105A06190
:10060000E80701D025F01005A6B1A6F14100192890
:1006100002D8203645F400654A463146204625601A
:100620004D46FFF713FE60B1012807D0ED1D25F000
:10063000070000E007E000F1080978E705F1040988
:1006400075E730467AE7206ABDE8F09FF068000061
:100650000FB400B58DB010A9099000910B904FF028
:10066000FF300A9000200C90064878440690064817
:1006700078446A4607900F9909A800F0F3FB0DB083
:100680005DF814FB170800002F0800002DE9FF5F3C
:100690004FF000089946144646469169D2E901A7F1
:1006A000DDF838B001988847054659EA0B0005D0B7
:1006B00009E0A1690198761C88470546216A284609
:1006C00088470028F5D1681C03D05FEACA7005D0BE
:1006D00015E04FF0FF3004B0BDE8F09F2068011D29
:1006E0002160D0F800800AE05FEACA7001D108F802
:1006F000015BA169761C01987F1E88470546002F83
:100700001ADD681C18D0B9F1000F0DD0E81705EB01
:10071000D060421120F01F0059F822102A1A01203F
:1007200090400142E0D107E0BBF1000FDCD1284648
:10073000216A88470028D7D0E16901988847BBF132
:10074000000F07D1002E05DD5FEACA7002D100213B
:1007500088F80010A068B84203DDBBF1000F03D099
:1007600017B16FF00100B6E73046B4E740EA010385
:10077000024630B59B0710D14FF0013400E008C2AB
:1007800008C91D1B9D4315EAC41FF8D013F0FF01D3
:1007900002F8011B0DD01B0AF8E711F8013B002BF2
:1007A00002F8013B05D011F8013B002B02F8013B98
:1007B000F3D130BD10B5431C02E010F8011B71B13C
:1007C0008107FAD14FF0013202C88C1A8C4314EA27
:1007D000C211F9D0C01A0A0603D0C01E10BDC01A3B
:1007E00010BD0A0401D0801E10BD0902FCD0401EBD
:1007F00010BD40EA010370B59B072ED14FF00136C2
:10080000042A2AD308C810C99D1B9D43121F15EA4C
:10081000C61517D0D8B2E1B2401A50EA056110D11E
:1008200098B2A1B2401A50EA05410AD123F07F40A4
:1008300024F07F41401A50EA052102D1180EA0EBA6
:10084000146070BDA342DBD018BA21BA884201D926
:10085000012070BD4FF0FF3070BD0AB9002070BD9F
:1008600010F8013B11F8014B63B1A3420AD1521EAB
:1008700008D010F8013B11F8014B1BB1A34201D184
:10088000521EEDD1181B70BD4FF000020429C0F0BC
:10089000128010F0030C00F01B80CCF1040CBCF1B2
:1008A000020F18BF00F8012BA8BF20F8022BA1EB04
:1008B0000C0100F00DB85FEAC17C24BF00F8012BE9
:1008C00000F8012B48BF00F8012B70474FF00002E1
:1008D00000B5134694469646203922BFA0E80C5036
:1008E000A0E80C50B1F12001BFF4F7AF090728BF11
:1008F000A0E80C5048BF0CC05DF804EB890028BF8D
:1009000040F8042B08BF704748BF20F8022B11F0B5
:10091000804F18BF00F8012B704770477047704731
:100920002DE9F0470D4699469246044600F1240809
:100930000168880604D5E06921F01001216000E01B
:100940000120A84201DD471B00E00027A1697A19B8
:1009500002EB0900081AA0612078C00602D42046E4
:10096000FFF74EFD002608E0D4E901211AF8060041
:100970009047206A401C761C20624E45F4DB2078AC
:10098000C0060AD52046FFF73BFD06E0D4E9012169
:1009900030209047206A401C2062381EA7F10107D2
:1009A000F4DC07E0D4E9012118F805009047206A3B
:1009B000401C2062281EA5F10105F3DC2046FFF74C
:1009C00035FD2078000602D50220BDE8F087012021
:1009D000FBE770472DE9FF4F0C461E464FF0FF37EF
:1009E0008BB0D2E90001DDF860800A908A46C1F33D
:1009F0000A5505B93D46002108464FF00000BAF1FE
:100A0000000F00F4400005DA00EB80004FF44001D5
:100A100001EA50004FEA9059B9F1010F00DDB946E3
:100A20000A9850EA4A000ED044F61050A5F2FF355D
:100A300045432F14B8F1000F1ED07542291E1EDD4C
:100A4000C9F100021CE0B8F1010F4FF0000001D025
:100A5000302103E0F24305E02154401CB042FBDBAF
:100A600030460022002121540B99C1F80880C1E9C9
:100A700000200FB0BDE8F08FBD1B6D1CDEE74A46BD
:100A800000DA694206A800F069FC06AB93E80700AB
:100A900003AB83E8070050460A9900F054FD8DE847
:100AA0000700A0F500501F3800900398002D0ADDC4
:100AB00042F21F014A460844002303A903906846F6
:100AC00000F0BDFF09E0A0F500504A461F380023A2
:100AD00003A90390684600F0C7FF8DE807000004F3
:100AE000000C03D04FF0FF30410800E01046B8F191
:100AF000000F03D00022009215461EE0751E05D49B
:100B000000F0E4F9303262556D1EF9D5B34601228A
:100B1000084302D000227F1C04E02078302801D155
:100B200000227F1E002A099784D01DE0112D07DACC
:100B300000F0CCF9303262556D1C50EA0102F5D15B
:100B4000084302D00098C8B10EE00021681E05E0FD
:100B5000235C625C63542254401E491C8142F7DBD3
:100B6000AB46A81B401E0990002004F80B000B9810
:100B7000099AC0F80880C0E9002B7AE711264FF0E7
:100B8000000857E72DE9F04F88460446D21D22F0B1
:100B9000070191B0D1E90001CDE90A0104F031FC6F
:100BA00002460B98C00F01D02D2007E02068810776
:100BB00001D52B2002E0202101EAC000032A099080
:100BC00001D0072A05DB03464146204600F0CCF958
:100BD0000BE12078800601D5E06900E00620B8F13D
:100BE000650F814606D0B8F1660F18D0B8F1670FCF
:100BF00070D131E00020B9F1110F009001DB112319
:100C000001E009F101030AAA01A90CA8FFF7E2FE1D
:100C1000DDE90C70002609F10105834647E001205B
:100C20004B4600904FF000470AAA01A90CA8FFF715
:100C3000D1FEDDE90DB00C995D46002610B909F131
:100C400001000D18B9EB050003D4C0F1FF3609F11E
:100C50000105A5EB09002BE0B9F1010F01DA4FF016
:100C600001090020B9F1110F0090484601DD112360
:100C700000E003460AAA01A90CA8FFF7ABFEDDE9D4
:100C80000C704D4600268346207800070AD4AB45F9
:100C900000DA5D4601A8012D04DD411911F8011C9F
:100CA000302907D04F4502DA17F1040F04DA01208A
:100CB00082460FE06D1EEEE7002F02DCED1B3E4486
:100CC00003E0781CA84200DD7D1CB81B00F1010A7E
:100CD0004FF000472078000703D4AA4501DB4FF00E
:100CE000FF3A0021B7F1004F0DF143088DF8431092
:100CF00024D002202B23002F01DA7F422D230A214A
:100D0000021EA0F1010000DC5FB197FBF1FC97FB34
:100D1000F1F201FB1C7C17460CF1300C08F801CDF8
:100D2000EEE7A8F1010003702188090501D54521EE
:100D300000E06521A0F1010800F8011C09980FA945
:100D4000A1EB0807FF1D00B10120411901EBEA707A
:100D5000A1693844081A401EA0612078C00602D458
:100D60002046FFF74DFB099828B1D4E901219047AF
:100D7000206A401C20622078C00622D52046FFF75A
:100D80003FFB1EE0002E04DBB34502DD01A8805DC1
:100D900000E03020D4E901219047206A401C206205
:100DA000761CAAF101005FEA000A0AD100F08AF875
:100DB000C0680168405CD4E901219047206A401C6A
:100DC0002062281EA5F10105DCDC07E0D4E9012141
:100DD00018F8010B9047206A401C2062381EA7F1CA
:100DE0000107F3DC2046FFF721FB032011B041E6A9
:100DF00001694A1C02610878704700B58FB0CDE9DF
:100E000001310021059105497944CDE903101146CE
:100E10006846FFF781FB0FB000BD0000E5FFFFFF54
:100E20000A6802F8010B0A60704710B5436913B1F4
:100E3000AFF3008001E0FFF70AFB012010BD12783C
:100E400000F124010A7000224A700122EDE71168C6
:100E50004FF0FF32E9E700000268114413780160A7
:100E600018467047D1600549794451610449794475
:100E7000116200211161114600F0B6B8EDFFFFFFCD
:100E8000E5000000426842B1016811F8013B23B15E
:100E9000521EC0E90012184670470121C160881E29
:100EA000704742685AB1C368016843B983688B428E
:100EB00005D0491E521CC0E90012002070474FF0B7
:100EC000FF307047004870478C02002030B5B0F109
:100ED0000A024FEA900E71F100034EEA817EB0EBF8
:100EE0000E0061EB91014FEA101E4EEA017E10EBFD
:100EF0000E0041EB11114FEA102E4EEA016E10EB7D
:100F00000E0041EB11214FEA104E4EEA014E10EB5C
:100F10000E0041EB1141401841F100014FEAD000B1
:100F200040EA41704FEAD10110EB80054FEA81049D
:100F300044EA907444EB01046D1944EB0404521B21
:100F4000A3414FF0000348BF0A3200D530BD401C1A
:100F500041F1000130BD10B5044600F09BFA006875
:100F6000005D00F0010010BD2DE9F0411F46044670
:100F700003260168072A01F4006004DB08B116A506
:100F800005E016A503E008B115A500E015A521F0C0
:100F900010002060A069C01EA0610FB1401EA061BA
:100FA0002046FFF72DFA4FB1D4E90121384690478A
:100FB000206A401C2062C01C206206E0206AFAE71A
:100FC000D4E9012115F8010B9047761EF8D220468E
:100FD000FFF72CFABDE8F0814E414E006E616E00C5
:100FE000494E4600696E66002DE9F34F4FF0000A46
:100FF0000C4656468DB001200C9001F10C000B9070
:1010000062690B9801219047051E2DD0252D2CD00B
:10101000216A8847C0B162690B9801219047216A13
:1010200088470028F7D16269411E0B98904700E07D
:10103000761CA1690D988847216A88470028F7D156
:10104000E1690D988847DBE7A1690D988847A842B8
:10105000074601D1761CD3E7E1690D9888477F1CCC
:1010600002D1BAF1000F6FD06BE162690B980027D3
:101070003D46394690472A2804D162690B980121E0
:1010800090470125DFF8D08262690B9801219047D3
:10109000A0F130010A290AD24745E5DC07EB8701B8
:1010A00000EB4107303FDFD445F01005ECE7E906DF
:1010B00001D46FF000476C280AD04C2814D068285F
:1010C00015D06A280DD074281CD07A281AD01DE0BB
:1010D00062690B98012190476C2802D045F0040505
:1010E00014E045F002050DE045F020050AE06269D4
:1010F0000B9801219047682802D045F0080505E0CB
:1011000045F4006562690B9801219047C4E90157D5
:1011100065283DD019DC58287AD00CDC452837D01A
:1011200004DC252826D041289ED131E046282FD046
:10113000472899D12CE05B2877D0612828D06328F4
:101140007CD0642823D15AE0F6E06F2848D008DC30
:1011500066281DD067281BD0692821D06E2816D19B
:1011600027E0702845D0732868D0752847D07828A4
:101170000DD14DE0A1690D988847252805463FF41B
:1011800069AFE1690D9888476D1C3FF46AAFD8E0FC
:101190000D9923466A466FF00100AFF30080C5E069
:1011A00045F0400023464FF000026060A80736D4A7
:1011B0003EE0E8077FF447AF2068011D216000682A
:1011C000290501D506701BE7290701D5068017E719
:1011D000A90703D5F117C0E9006111E706600FE721
:1011E00045F0400023464FF008026060A80716D47F
:1011F0001EE040F60E0125EA0100606016E045F0B1
:10120000400023464FF00A026060A80707D40FE0B1
:1012100045F040006060A80708D5234610220D99CC
:101220006FF00100AFF3008080E007E0102223465A
:101230000D996FF00100AFF3008077E04FF00009E7
:1012400063284F46C8464B46CB4602D05B2806D0A3
:1012500038E0E80601D40120A060012732E062698D
:10126000D4F80CB00B98012190475E2807D14FF0BD
:10127000010949466269D4F80CB00B98904721697E
:1012800039B900210A4603AB43F82120491C08293B
:10129000FADBD8B3216949B308F1010862690B98F8
:1012A000012190475D28F4D1B9F1000F09D0002049
:1012B00003A951F82020D24341F82020401C0828DF
:1012C000F7DB03AB2069002820794FEA40701ED07D
:1012D0005B462246CDF80080CDE901970D990028A4
:1012E0006FF0010020DAAFF300801FE0C11703AAFE
:1012F00000EBD1614B1121F01F0102EB8302411A77
:1013000013680120884003431360C7E719E00D9973
:10131000224600286FF00100009702DAAFF3008048
:1013200004E0FFF7B3F901E0AFF3008000280ADA28
:10133000401C06D10C9820B14FF0FF300FB0BDE833
:10134000F08F5046FAE7E90701D10AF1010A064495
:1013500000200C9054E60000CCCCCC0C2DE9F047DA
:10136000814616468AB0354878440DC88DE80D0090
:1013700032487844801C03AC0DC884E80D0041F667
:101380009B300844372190FBF1F290FBF1F5A5F179
:10139000800501FB12041B3C02D56442012000E0E1
:1013A0000020DFF898A080460027FA44AAF1BE0A80
:1013B0000EE0E0070AD03246684607EB47010123FA
:1013C0000AEB810100F050FB8DE8070064107F1CE0
:1013D000002CEED1194F7F44AE3F19E0E80715D03D
:1013E00007EB04100DF1180A90E80E008AE80E00D1
:1013F000C068F04201D1981908903246012306A92D
:1014000003A800F031FB03AB83E807006D10641CF8
:10141000002DE3D14FF0010332466946B8F1000FC9
:1014200003A802D000F00BFB01E000F01DFBC9E9AE
:101430000001C9F808200AB0BDE8F087405B000051
:10144000004870476C0200207546FFF7F9FFAE4672
:1014500005006946534620F00700854618B020B5C0
:10146000FEF730FFBDE820404FF000064FF00007C8
:101470004FF000084FF0000B21F00701AC46ACE83C
:10148000C009ACE8C009ACE8C009ACE8C0098D46A9
:101490007047000010B5FFF715FD001D10BD00BF1F
:1014A0004546000010B50446AFF300802046BDE875
:1014B0001040FEF7F3BE00004FF0013C50F8042B43
:1014C00051F8043B9A4221D1A2EB0C03934313EA57
:1014D000CC1317D150F8042B51F8043B9A4215D184
:1014E000A2EB0C03934313EACC130BD150F8042B5B
:1014F00051F8043B9A4209D1A2EB0C03934313EA3F
:10150000CC13DBD04FF00000704700BFD01A01BAF7
:10151000B1FA81F101F0180122FA01F0CB40C1F1DA
:101520002001DBB2C0B2C01A2CFA01F3D11A9143E8
:1015300011EAC311E6D1704701491820ABBEFEE79E
:101540002600020070475FEA400C08BF91F0000FD0
:101550004FEA8C234FEAC12243EA51514FEA1C5013
:1015600018BF00F5F0404FEA300018BF41F00041CD
:101570005FEA6C5C00F02980BCF1FF3F08BF40F0DF
:1015800080407047130C06BF12044FF0100C4FF050
:10159000000C130E04BF12020CF1080C130F04BF51
:1015A00012010CF1040C930F04BF92000CF1020C19
:1015B000D30F04BF52000CF1010C11464FF0000292
:1015C000A0F11F00A0EB0C00704711F0004F08BF06
:1015D000704731F000413FF4D5AF0B0C06BF090452
:1015E0004FF0100C4FF0000C0B0E04BF09020CF171
:1015F000080C0B0F04BF09010CF1040C8B0F04BF86
:1016000089000CF1020CCB0F04BF49000CF1010C56
:10161000CCF12003A0EB0C0022FA03F302FA0CF247
:1016200041EA030100F10100704720F07F4C80EA9D
:10163000030023F07F47ACEB070303F57C5300F076
:10164000004003F1FF032DE980494FEA154B09B42F
:101650004FEA144325EA0B4E24EA03480FF204260E
:1016600006EB132749083E785FEA320203FB066760
:10167000C7F5000707FB06F64FEA54374FEAD64690
:1016800006F1020607FB066CCCF1005C4FEA1C4732
:101690002CEA074C07FB06F40CFB06F504EB154699
:1016A0004FEA961634BF00204FF000404FEAD13782
:1016B00006FB07FC4FEA1C4C0CFB0BF7D21B03FB91
:1016C0000CF761EB07010CFB0EF7B0EB074072EB78
:1016D00017420CFB08F734BFA2EB0742B2EB0742FC
:1016E00061EB17414FEA0C444FEA910706FB07FCF8
:1016F0004FEA1C4C0CFB0BF7B0EBC74072EB5732B8
:1017000003FB0CF734BFA2EBC742B2EBC74261EB5D
:1017100057310CFB0EF7B0EBC70072EB57720CFBA6
:1017200008F734BFA2EBC702B2EBC70261EB5771F7
:10173000039F4FEA816141EA921104EBCC044FEA26
:10174000D1374FEA826206FB07FC42EA90124FEA69
:1017500080604FEA1C4C0CFB0BF7D21B03FB0CF711
:1017600061EB07010CFB0EF7B0EB074072EB174281
:101770000CFB08F734BFA2EB0742B2EB074261EB68
:1017800017414FEA8C554FEA910704EB9C2406FB66
:1017900007FC4FEA1C4C0CFB0BF7B0EBC74072EB9D
:1017A000573203FB0CF734BFA2EBC742B2EBC74280
:1017B00061EB57310CFB0EF7B0EBC70072EB5772C1
:1017C0000CFB08F734BFA2EBC702B2EBC70261EB18
:1017D000577115EB4C254FEA816141EA92114FEAAE
:1017E00082624FEAD13742EA901206FB07FC44F1CD
:1017F00000044FEA80604FEA1C4C0CFB0BF7D21B35
:1018000003FB0CF761EB07010CFB0EF7B0EB074095
:1018100072EB17420CFB08F734BFA2EB0742B2EBA6
:10182000074261EB174115EB1C154FEA813141EA84
:1018300092414FEA823242EA90424FEA80304FEAC8
:101840000C7644F1000448EA03434EEA0B484FF09B
:10185000000EB2EB080C71EB030724BF6246394659
:101860004EEB0E0E4FF0000B0018524149414BEB6E
:101870000B0BB2EB080C71EB03077BF1000B24BFE1
:10188000624639464EEB0E0E4FF0000B00185241E7
:1018900049414BEB0B0BB2EB080C71EB03077BF1EF
:1018A000000B24BF624639464EEB0E0E51EA02078A
:1018B00018BF46F0010616EB0E7655F1000254F102
:1018C000000103D5BDE88901BDE80088BDE88901B4
:1018D000BDE80048B619524141EB0101A3F10103F3
:1018E000704780807F7E7D7C7B7A7978777676758D
:1018F0007473727171706F6E6E6D6C6C6B6A6A6905
:101900006868676666656464636362616160605F9E
:101910005F5E5E5D5D5C5C5B5B5A5A595958585717
:10192000575656555555545453535252525151507F
:1019300050504F4F4F4E4E4D4D4D4C4C4C4B4B4BD2
:101940004A4A4A4949494848484747474746464618
:101950004545454444444443434343424242424153
:101960004141002B9C4630D477002BD01CB54FEA68
:10197000370703B44FF010004FF01001BAF1000F19
:1019800006D0BCF1000FDCBF40F0080040F00801B9
:101990004FF000000FBCBDE810400BF1010BBBF194
:1019A000010F08BF5FEA170722BF12F1010211F110
:1019B00001014FF0004143F1000300F0004043EA11
:1019C00000007047F9D35708D0E746EA064613F1FE
:1019D000400F4FEA16461FDD13F1200FDFBF1643FD
:1019E0000A46002120335B42BED0C3F1200746EAFD
:1019F000064602FA07F74FEA164646EA0706C3F11B
:101A0000200722FA03F201FA07F721FA03F14FF057
:101A1000000342EA0702A7E746EA020646EA06464C
:101A20004FEA164646EA0106BCBF46EA0646360CB1
:101A30004FF000034FF000024FF0000194E72DE952
:101A4000804C9A46934670B491E8380007C831EA52
:101A5000400C48BF34EA430C03D5FFF7E6FDFFF71F
:101A600080FFF0BCBDE8008C2DE9804C9A4693467F
:101A700070B491E8380007C810F0804F08BF13F029
:101A8000804F03D100F005F8FFF76BFFF0BCBDE815
:101A9000008C20F07F4780EA030023F07F4C07EBA7
:101AA0000C03A3F57C5300F00040A3F1FE0392F079
:101AB000000F00F0B38095F0000F00F077802DE963
:101AC00001494FEA11404FEA144621EA004800FB61
:101AD00006FC24EA064708FB06F607FB08F800FBAD
:101AE00007F718EB06484CEB164C4FEA124B18EB75
:101AF00007484FEA15464CEB174022EA0B4E0BFB0A
:101B000006FC25EA06470EFB06F607FB0EFE0BFB5E
:101B100007F71EEB064E4CEB164C4FF000061EEB83
:101B2000074E4CEB174B18EB0B0840F1000018EB7D
:101B30000E0B58EB000840F100008F1A4FF0000127
:101B40003CBFC943661B14BFB5EB040C00213CBF6E
:101B5000C943F61B4FEA17444EEA8E0E27EA0445A6
:101B60004FEA1C4704FB07622CEA074C05FB07F70A
:101B70000CFB05F604FB0CFC16EB074642EB174288
:101B800016EB0C4642EB1C421BEB060658EB02021E
:101B9000414146EA9E0601D5BDE80189B619524188
:101BA00041EB0101A3F10103BDE801894FEA1445AE
:101BB0004FEA114724EA054621EA074C05FB07F4E2
:101BC00006FB07F70CFB06F105FB0CFC11EB0741CC
:101BD00044EB17444FEA124711EB0C4144EB1C4411
:101BE00022EA074C05FB07F206FB07F70CFB06F69B
:101BF00005FB0CFC16EB074642EB174216EB0C46B6
:101C000042EB1C456A1854F1000148BF7047B619F1
:101C1000524141EB0101A3F10103704795F0000F20
:101C200037D04FEA11424FEA144721EA024624EA2C
:101C3000074C02FB07F106FB07F70CFB06F402FB5F
:101C40000CFC14EB074441EB17414FEA154714EB2A
:101C50000C4441EB1C4125EA074C02FB07F506FB4F
:101C600007F70CFB06F602FB0CFC16EB074645EBF0
:101C7000174516EB0C4645EB1C42121951F10001B9
:101C800048BF7047B619524141EB0101A3F101036E
:101C900070474FEA14454FEA114724EA054621EA06
:101CA000074C05FB07F106FB07F70CFB06F24FF0AC
:101CB000000605FB0CFC12EB074241EB174112EB4F
:101CC0000C4251EB1C4148BF7047921841EB010197
:101CD000A3F101037047FEE77047002240F6B833D6
:101CE00006E00021491C89B29942FBD3521C92B2F2
:101CF0008242F6D3704772B6FEE700002DE9F04746
:101D00000D4E89468046002406F1280704EB840521
:101D1000A81904224146FEF76CFD28B9E8190422EF
:101D20004946FEF766FD18B1641CE4B2082CEDD3F9
:101D30002046BDE8F08700003C00002010B590F878
:101D4000253000210122022B03D00421C16301218F
:101D500022E003681C6824F00E041C60836C1C687D
:101D600024F480741C6003681C6824F001041C6067
:101D700090F84430046C03F01F0302FA03F363602D
:101D8000D0E913345C60436D33B11C6824F4807473
:101D90001C60D0E916345C6080F82520002280F8B1
:101DA0002420084610BD70B590F82520002401219C
:101DB0002346022A07D00422C26380F8251080F847
:101DC0002430012429E00268156825F00E0515600D
:101DD0000268156825F001051560826C156825F408
:101DE0008075156090F84420056C02F01F0201FA1E
:101DF00002F26A60D0E913255560426D32B1156870
:101E000025F480751560D0E91625556080F82510F9
:101E100080F82430816B01B18847204670BD0000F6
:101E200070B5044600F03CF90546601C02D0044839
:101E30004068044400F034F9401BA042FAD370BD5E
:101E4000240000202DE9F04FDFF820920023012626
:101E50000324A9F1040B85B00F2709F1040AABF1A3
:101E6000040EFAE006FA03F52A407CD091F804C08B
:101E70000CF0030CBCF1010F02D0BCF1020F26D113
:101E8000D0F808C0CDF800C04FEA430C04FA0CF8B3
:101E9000CDF810C0DDF800C02CEA080CCDF800C069
:101EA000D1F80C80DDF810C008FA0CF8DDF800C09D
:101EB00048EA0C08C0F80880D0F804C02CEA050CE9
:101EC0000D79C5F300159D4045EA0C0545600D7977
:101ED000ED43AD070ED0C5684FEA430804FA08FC8D
:101EE00025EA0C05D1F808C00CFA08FC4CEA050CF0
:101EF000C0F80CC00D7905F00305022D16D1DD08E0
:101F000000EB850CCDF808C0DCF820805D074FEAB7
:101F1000D56C07FA0CF528EA05080D6905FA0CF5E9
:101F2000DDF808C045EA0805CCF8205005684FEAFE
:101F3000430CCDF808C004FA0CFC25EA0C0591F816
:101F400004C00CF00308DDF808C008FA0CF848EAF1
:101F50000508C0F800804D6815F4403F7CD0444D22
:101F6000D5F860C000E077E04CF0010CC5F860C027
:101F70002D6E23F0030C05F0010500953D4D6544E1
:101F80000295AD684FEA837C4FEA1C7807FA08FC9B
:101F900025EA0C05B0F1904F06D0DFF8DCC06045B3
:101FA00005D14FF0010C20E04FF0000C1DE0DFF8F0
:101FB000CCC0604502D14FF0020C16E0DFF8C0C083
:101FC000604502D14FF0030C0FE0DFF8B8C0604568
:101FD00002D14FF0040C08E0DFF8ACC0604502D13C
:101FE0004FF0050C01E04FF0060C0CFA08FC4CEA2F
:101FF000050C029DC5F808C0D9F80050CC46D1F8B0
:10200000048095435FEAC82800D51543CCF80050FA
:10201000DAF80050D446D1F8048095435FEA882866
:1020200000D51543CCF80050DBF80050DC46D1F861
:10203000048095435FEA883800D51543CCF80050FA
:10204000DEF80050F446D1F8048095435FEAC838C2
:1020500000D51543CCF800505B1C0A6832FA03F532
:102060007FF400AF05B0BDE8F08F00000804014028
:102070000010024000000140000400480008004831
:10208000000C004800100048001400480069084097
:1020900000D0012070470AB18161704781627047AA
:1020A00001488068704700002400002002488168D1
:1020B00042681144816070472400002010B500245C
:1020C000032000F073F80F2000F008F808B1012495
:1020D00001E000F025F8204610BD000070B50E4E5E
:1020E00005460024706898B14FF47A71B1FBF0F0A6
:1020F0000A490968B1FBF0F000F064FD40B9102D09
:1021000006D200222946501E00F030F8356000E06B
:102110000124204670BD0000240000203000002073
:102120000A4882B0016E41F001010166016E01F0C2
:1021300001010091816D41F080518165806D00F059
:102140008050009002B000F0A1B8000000100240E2
:10215000002809DB00F01F020121914040098000A6
:1021600000F1E020C0F8001170470000F0B40E4B01
:102170001B680C46C3F30223C3F10705042D00D9E5
:102180000425191D072901D2002300E0DB1E0126CA
:1021900006FA05F1491E214099409E40761E1640E0
:1021A0003143F0BC03F045B90CED00E0064900F006
:1021B000070208684FF6FF03184040EA0220034A6E
:1021C00010430860704700000CED00E00000FA05C5
:1021D0002B492C4B0A6832214A432B4940B1B0F5B8
:1021E000007F086829D020F4C06040F480602CE0B3
:1021F0000868C0F34120022804D051F8800F20F471
:10220000807022E0D1F8800020F48070C1F8800056
:10221000086820F4C06040F400700860B2FBF3F07E
:10222000401C00E0401E4A69520501D50028F9D142
:10223000486940050AD503207047C0F341200228B1
:1022400006D051F8800F40F480700860002070477D
:10225000D1F8800040F48070C1F88000086820F454
:10226000C06040F400700860B2FBF3F0401C00E076
:10227000401E4A695205DBD50028F9D1D8E7000095
:102280003000002040420F0000700040024881688A
:1022900041F4804181607047007000402DE9F843AF
:1022A0000446006800269D4D00035ED5A86D0027FA
:1022B000C00008D4A86D40F08050A865A86D012723
:1022C00000F080500090DFF85892D9F8001041F4E7
:1022D0008071C9F80010FFF7E3FE804606E000BFFA
:1022E000FFF7DEFEA0EB080002282BD8D9F800008B
:1022F000C005F5D5D5F8900010F4407014D0216CCD
:10230000814211D0D5F89000D5F8901020F440709B
:1023100041F48031C5F89010D5F8901021F4803147
:10232000C5F89010C5F89000C00711D0FFF7B8FEAF
:10233000804641F2883907E0FFF7B2FEA0EB0801C2
:10234000494501D903260BE0D5F890008007F3D565
:10235000D5F89000216C20F440700843C5F8900037
:102360001FB1A86D20F08050A8652078C00707D065
:10237000D5F88800616820F003000843C5F888009C
:102380002078800707D5D5F88800A16820F00C00D8
:102390000843C5F888002078400707D5D5F888009D
:1023A000E16820F030000843C5F888002078000775
:1023B00007D5D5F88800216920F0C0000843C5F88A
:1023C00088002078800607D5D5F88800616920F458
:1023D00040600843C5F888002078400607D5D5F846
:1023E0008800A16920F440500843C5F8880020788F
:1023F000000607D5D5F88800E16920F4404008437D
:10240000C5F888002088C00507D5D5F88800216A5E
:1024100020F440300843C5F888002088800507D59F
:10242000D5F88800616A20F440200843C5F8880088
:10243000208840050FD5D5F88800A16A20F4401007
:102440000843C5F88800A06AB0F5801F03D1E8688A
:1024500040F48010E860208800050FD5D5F888008A
:10246000E16A20F440000843C5F88800E06AB0F54E
:10247000800F03D1E86840F48010E8602088C00431
:102480000FD5D5F88800216B20F040700843C5F8BF
:102490008800206BB0F1807F03D1E86840F48010A1
:1024A000E86020884FF0006180040ED5D5F88800E0
:1024B000626B20F040601043C5F88800606B884272
:1024C00003D1E86840F48010E860208840040ED50D
:1024D000D5F88800A26B20F040601043C5F8880052
:1024E000A06B884203D1E86840F48010E86020883F
:1024F00000040FD5D5F88800E16B20F04050084368
:10250000C5F88800E06BB0F1805F03D1E86840F463
:102510008030E8603046BDE8F883000000100240DB
:10252000007000402DE9F0470E4605004FF000070F
:1025300025D0DFF8AC81D8F8000000F00F00B042E1
:102540000CD2D8F8001021F00F013143C8F8001068
:10255000D8F8000000F00F00B04210D12968614C9B
:10256000C80741F2883A5AD06868DFF87C9103289E
:1025700008D0022820682DD0400500282CDB01203F
:10258000BDE8F08720688001F9D5E06800F003021B
:10259000E068C0F30310401C032A19D0534A00BF5F
:1025A000B2FBF0F0E268C2F306225043E268C2F3E5
:1025B0004162521C5200B0FBF2F0484517D9A068A6
:1025C00010F0F00F0CD0880711D5A86840B10EE0CC
:1025D000474AE5E78003D0E700F0B6F8484506D95A
:1025E000A06820F0F00040F08000A0608027A06884
:1025F000696820F003000843A060FFF751FD8146A1
:1026000006E000BFFFF74CFDA0EB090151453AD8A9
:10261000A068696800F00C00B0EB810FF2D1286867
:10262000810714D5400703D5A06840F4E060A0609E
:102630002878000705D5A06820F4605040F4E060D9
:10264000A060A068A96820F0F000084304E0802F93
:1026500003D1A06820F0F000A060D8F80010404638
:1026600001F00F01B14216D9016821F00F01314389
:102670000160FFF715FD074607E000BFFFF710FDFB
:10268000C11B514501D903207AE7D8F8000000F0BA
:102690000F00B042F2D12878400705D5A068E9685C
:1026A00020F4E0600843A0602878000706D5A06801
:1026B000296920F4605040EAC100A06000F044F8AD
:1026C000A1680C4AC1F30311515C01F01F01C8401D
:1026D0000949086009480068BDE8F047FFF7FEBCFB
:1026E000002002400010024000B4C4040024F400A2
:1026F00000366E01345C0008300000202400002009
:102700000548064900688968054AC1F30221515C01
:1027100001F01F01C8407047300000200010024047
:10272000445C00080548064900688968054AC1F309
:10273000C221515C01F01F01C840704730000020E9
:1027400000100240445C0008184910B58868C0F3C6
:1027500081021748012A0BD08A68164BC2F3810206
:10276000022A06D08A68C2F38102032A03D000201D
:1027700010BD184610BDCA6802F00304CA68C2F34F
:102780000312521C032C02D0B0FBF2F001E0B3FBA9
:10279000F2F0CA68C968C2F306225043C1F341612E
:1027A000491C4900B0FBF1F010BD000000100240D0
:1027B0000024F40000366E012DE9F84304007AD0BD
:1027C0002078FA4DC00747D0A868E96800F00C00EF
:1027D00001F003010C2802D0082817D001E00329DA
:1027E00014D06068B0F5803F17D0B0F5A02F2868EE
:1027F00017D020F480302860286820F480202860DA
:102800006068E0B1FFF74CFC064614E028688003DE
:1028100022D560680028D2D01EE0286840F48030BD
:10282000EDE740F480202860F7E700BFFFF738FCB1
:10283000801B642870D828688003F7D50CE0FFF768
:102840002FFC064605E000BFFFF72AFC801B64282A
:10285000F0D828688003F7D4207880074CD5A86882
:10286000E96800F00C0001F003010C2802D00428F4
:102870000DD001E002290AD0E068002828682BD09A
:1028800040F480702860FFF70BFC064619E02868CA
:10289000400502D5E068002891D06868217C20F0CE
:1028A000FE4040EA01606860C1480068FFF716FC1E
:1028B000002800D120E076E1FFF7F2FB801B022820
:1028C000B8D828684005F7D56868217C20F0FE401C
:1028D00040EA016068600FE020F480702860FFF734
:1028E000DFFB064605E000BFFFF7DAFB801B02288E
:1028F000A0D828684005F7D42078000729D560695A
:102900000028D5F8940013D040F00100C5F89400D9
:10291000FFF7C6FB064606E090E000BFFFF7C0FBEE
:10292000801B022886D8D5F894008007F6D510E0E1
:1029300020F00100C5F89400FFF7B2FB064604E062
:10294000FFF7AEFB801B022878D8D5F894008007EB
:10295000F6D42078400761D5A86D0026C00008D4C1
:10296000A86D40F08050A865A86D012600F0805049
:10297000009090480168C90511D40168804641F46F
:1029800080710160FFF78CFB074604E0FFF788FBCE
:10299000C01B022852D8D8F80000C005F6D5A068A0
:1029A000012815D00528D5F8900016D020F0010098
:1029B000C5F89000D5F8900020F00400C5F890000C
:1029C000A06841F28838B8B1FFF76AFB07460EE00D
:1029D000D5F8900040F00100F0E740F00400C5F8A1
:1029E0009000F5E7FFF75CFBC11B414526D8D5F801
:1029F00090008007F6D50CE0FFF752FB074604E095
:102A0000FFF74EFBC11B414518D8D5F89000800751
:102A1000F6D41EB1A86D20F08050A86520788006FD
:102A200029D5A0690028D5F8980013D040F00100FE
:102A3000C5F89800FFF734FB064606E077E000BFD4
:102A4000FFF72EFB801B022877D8D5F89800800767
:102A5000F6D510E020F00100C5F89800FFF720FB44
:102A6000064604E0FFF71CFB801B022865D8D5F85A
:102A700098008007F6D4E069F0B3A968C1F381013A
:102A8000032961D00228286820F0807028600BD0CC
:102A9000E86820F00300E860E86847490840E8601B
:102AA000FFF7FEFA04464BE0FFF7FAFA064604E0A9
:102AB000FFF7F6FA801B02283FD828688001F7D478
:102AC000F4E908016FF00F0202EB01110843218ABB
:102AD0005204490802EB4151A26841EA022108432D
:102AE000217D4FF07E42490802EB41610843217B82
:102AF00040EAC160E96800E062E0304A1140084302
:102B0000E860286840F080702860E86840F08070D5
:102B1000E860FFF7C5FA044605E000BFFFF7C0FA1A
:102B2000001B022809D828688001F7D548E004E096
:102B3000FFF7B6FA001B022802D90320BDE8F8838C
:102B400028688001F4D43BE00128F7D0E868226AC5
:102B500000F00301914226D1616A00F0F002090100
:102B6000103991421FD1A26A00F4FE41B1EB022F4D
:102B700019D194F82C2000F07841B1EBC26F12D13A
:102B8000218E00F4C00249084905A1F500119142C7
:102B900009D194F8341000F0C06049084906A1F149
:102BA000007181420CD00120C8E7000000100240F3
:102BB0002400002000700040FFFFEEFE0C809F010B
:102BC0000020BBE710B5401EB0F1807F01D301208B
:102BD00010BD4FF0E02460610F21601702F029FC66
:102BE0000020A06107202061002010BD70477047C1
:102BF00070470000F0B590F83C20012A4AD001222D
:102C000080F83C20CA688B6822F440721A434B68F3
:102C100022F480621A430B6822F400621A430B69A3
:102C200022F480521A434B6922F400521A430B6B70
:102C300022F480421A430B8B22F4702242EA0342B0
:102C4000154C03680026154DA34201D0AB4203D1B9
:102C5000CF6922F080523A43A34201D0AB4214D153
:102C60000F8D22F4700242EA07520F6A22F080723E
:102C70003A434F6A22F000723A43A34201D0AB427A
:102C800003D1C96A22F000520A435A6480F83C60BA
:102C90000020F0BD0220F0BD002C014000340140B6
:102CA0007047704770470000F0B590F83C20012A4B
:102CB0003AD0012580F83C50022280F83D2003687C
:102CC0005A689C68194E1A4FB34201D0BB4204D1D6
:102CD00022F4700C4A6842EA0C02DFF858C002EA9B
:102CE0000C02D1F800C04CEA020CC3F804C0026820
:102CF000B2420DD0B2F1804F0AD00F4B9A4207D0AA
:102D00000E4B9A4204D0BA4202D00D4B9A4204D1E3
:102D1000896824F080031943916080F83D500021B8
:102D200080F83C100846F0BD0220F0BD002C0140A8
:102D3000003401408FFFFFFD000400400008004008
:102D400000400140704710B5040003D094F83D00E6
:102D500010B107E0012010BD002084F83C0020469F
:102D600000F022F8022084F83D00211D206801F0C7
:102D7000E1FB012084F8480084F83E0084F83F001D
:102D800084F8400084F8410084F8420084F843004D
:102D900084F8440084F8450084F8460084F847002D
:102DA00084F83D00002010BD08B5114A01681148A3
:102DB000914211D1816D41F002018165806D002247
:102DC00000F00200009011461D20FFF7CFF9BDE88A
:102DD00008401D20FFF7BCB9074A914207D1016E98
:102DE00041F480210166006E00F48020009008BD4F
:102DF00000040040001002400048014090F83D10DF
:102E0000012901D001207047022180F83D1001689E
:102E1000CA6842F00102CA600068104988420ED0B8
:102E2000B0F1804F0BD00E49884208D00D4988423E
:102E300005D00D49884202D00C49884207D18168EB
:102E40000B4A1140062906D0B1F5803F03D0016836
:102E500041F001010160002070470000002C01409A
:102E600000040040000800400034014000400140E0
:102E70000700010070B5044690F83C0000250128C9
:102E800014D0012684F83C60022084F83D002268BA
:102E90009068364B184020F47F4090600868702896
:102EA0002ED010DC10F00F0F03D021E04FF0020005
:102EB00070BD4FEA2012072A1AD2DFE802F0525200
:102EC00052524A3840002A4BC21A984249D009DC73
:102ED000B0F5805F0DD0B0F5005F1CD0B0F1101FD1
:102EE00006D13EE0102A3CD0202A3AD0502A38D0D1
:102EF000012584F83D60002084F83C00284670BD20
:102F0000CB68D1E90121206801F079FB2068816854
:102F100041F0770109E0CB68D1E90121206801F097
:102F20006EFB2068816841F480418160E1E7CA68F6
:102F30004968206801F00EFD5021206806E0CA684B
:102F40004968206801F017FD6021206801F062FBEC
:102F5000CFE7CA684968206801F0FCFC402120687E
:102F6000F4E7226801461046F0E7000088FFCEFF34
:102F70002000100090F83C20012A0CD0012200F81B
:102F80003C2F0223437050F83C3C596142700021B1
:102F900001700846704702207047704770B50446BC
:102FA000006801694FF00005C943890715D4C1685D
:102FB000C943890711D4E91E0161012020772068E7
:102FC00080698007204602D0FFF7E7FF04E000F0A9
:102FD0000BF9204600F0CDF9257720680169C94337
:102FE000490717D4C168C943490713D46FF00401D6
:102FF0000161022020772068806910F4407F20461C
:1030000002D0FFF7CAFF04E000F0EEF8204600F01F
:10301000B0F9257720680169C943090716D4C1684A
:10302000C943090712D46FF0080101610420207719
:103030002068C0698007204602D0FFF7AEFF04E099
:1030400000F0D2F8204600F094F925772068016955
:10305000C943C90617D4C168C943C90613D46FF060
:1030600010010161082020772068C06910F4407FBA
:10307000204602D0FFF791FF04E000F0B5F82046AB
:1030800000F077F9257720680169C943C90708D19D
:10309000C168C943C90704D1891E0161204600F0F7
:1030A000E7F920680169C943090609D4C168C94321
:1030B000090605D46FF0800101612046FFF797FDF6
:1030C00020680169C943C90509D4C168C943090613
:1030D00005D46FF4807101612046FFF787FD2068F9
:1030E0000169C943490609D4C168C943490605D4E1
:1030F0006FF040010161204600F01CFA2068016970
:10310000C943890609D4C168C943890605D46FF04B
:10311000200101612046FFF76BFD20680169C9436A
:10312000C90209D4C168C943C90205D46FF480112A
:1031300001612046FFF7B5FD20680169C943890296
:1031400009D4C168C943890205D46FF40011016133
:103150002046FFF7A5FD20680169C943490209D44B
:10316000C168C943490205D46FF48001016120465A
:10317000FFF798FD20680169C94309020BD4C168B3
:10318000C943090207D46FF4000101612046BDE87C
:103190007040FFF7D7BD70BD10B586B0044614214E
:1031A0006846FDF793FB0E492068884216D10D480A
:1031B000C16C41F00101C164C06C694600F00100BE
:1031C0000590802000900220019000200290039042
:1031D000012004904FF09040FEF734FE06B010BD81
:1031E0000048014000100240704770B5044690F856
:1031F0003C0000260D4601280BD0012084F83C003D
:103200000C2A4AD007DC82B1042A20D0082A06D131
:1032100031E0022070BD102A53D0142A63D0012659
:10322000002084F83C00304670BD206801F0FCF9B5
:103230002068816941F0080181612068816921F07D
:1032400004018161206881692A69114311E02068C5
:1032500001F038FA2068816941F4006181612068D9
:10326000816921F480618161206881692A6941EA6C
:1032700002218161D4E7206801F06CFA2068C169FD
:1032800041F00801C1612068C16921F00401C161F8
:103290002068C1692A69114311E0206801F0A2FA8F
:1032A0002068C16941F40061C1612068C16921F4ED
:1032B0008061C1612068C1692A6941EA0221C16156
:1032C000AEE7206801F0D6FA2068016D41F00801F0
:1032D00001652068016D21F0040101652068016D20
:1032E0002A69114311E0206801F0FCFA2068016DA1
:1032F00041F4006101652068016D21F48061016580
:103300002068016D2A6941EA0221016588E710B54C
:10331000040003D094F83D0010B107E0012010BD77
:10332000002084F83C00204600F022F8022084F8B7
:103330003D00211D206801F0FDF8012084F84800BF
:1033400084F83E0084F83F0084F8400084F841008F
:1033500084F8420084F8430084F8440084F845006F
:1033600084F8460084F8470084F83D00002010BD32
:103370007047704730B50446022269B1042912D063
:10338000082917D00C291CD0102921D094F843000B
:10339000012824D0012030BD94F83E000128F9D145
:1033A00084F83E201DE094F83F000128F2D184F813
:1033B0003F2016E094F840000128EBD184F840202B
:1033C0000FE094F841000128E4D184F8412008E09E
:1033D00094F842000128DDD184F8422001E084F80D
:1033E00043200122206801F0FDF8194B206819499B
:1033F000194A984209D0884207D0904205D0174D0B
:10340000A84202D0164DA84203D1456C45F40045B0
:103410004564206898420CD0B0F1804F09D0114B20
:10342000984206D0104B984203D0884201D0904277
:1034300007D181680D4A1140062906D0B1F5803FB9
:1034400003D0016841F001010160002030BD00009F
:10345000002C014000340140004001400044014084
:10346000004801400004004000080040070001003F
:1034700070B501682C4881424DD12C4D0121284660
:10348000FEF704FE00B10120294C0221607028469D
:10349000FEF7FCFD00B10120607204212846FEF712
:1034A000F5FD00B10120607401214FF09040FEF75E
:1034B000EDFD00B101206076002001465FF00102C1
:1034C00014F8303023B1012B0AD0022B20D112E0A6
:1034D00004EBC0035D78DDB904F83020596017E0D3
:1034E00004EBC0035B7813B104F8301010E0022342
:1034F00004F830300CE004EBC0035D78012D0BD0F4
:103500005D686D1C5D60502D02D904F83010DA70D2
:10351000401C0428D4DB70BD04F830105D68502DC9
:10352000F6D89A70F4E70000000400400004004858
:103530002C020020704790F88010012918D001213A
:1035400080F880102421C0F8841050F8641B0A68A9
:103550000B6823F001030B6022F00051002202608F
:1035600050F8643C196020210162027710467047D0
:10357000022070477047704770B5044690F880008D
:1035800001281DD0012084F880002420C4F8840084
:1035900020680568026822F00102026020688268E3
:1035A00022F060620A438260204601F0F7F9206849
:1035B00005602020C4F88400002084F8800070BDDD
:1035C000022070BD70B5044690F8800001281DD01F
:1035D000012084F880002420C4F884002068056855
:1035E000026822F0010202602068826822F06042D4
:1035F0000A438260204601F0D1F92068056020204E
:10360000C4F88400002084F8800070BD022070BDE2
:1036100070477047704700002DE9F0410368044689
:10362000D86919689A6840F60F0528424FF00005DE
:1036300009D186067ED501F0200602F080573E4370
:1036400078D0216F27E1A94EA94F16400F4037438C
:1036500070D0C70709D0CF0507D501271F62D4F85E
:103660008C3043F00103C4F88C3083070AD5D307AC
:1036700008D0276802233B62D4F88C3043F004035F
:10368000C4F88C3043070AD5D30708D02768042331
:103690003B62D4F88C3043F00203C4F88C3003074B
:1036A0000CD501F02003334308D026680823336289
:1036B000D4F88C3043F00803C4F88C3003050BD5E4
:1036C0004B0109D526684FF400633362D4F88C307F
:1036D00043F02003C4F88C30D4F88C30002B3AD05F
:1036E000800609D501F0200002F08051084303D084
:1036F000216F09B120468847D4F88C002168896879
:10370000490602D410F0280F27D0204601F006FA0F
:103710002068806840061BD52068083050E8001FEC
:1037200021F0400140E80012002AF5D1E06F78B1A5
:10373000704900E017E08163E06FFEF734FB00287A
:1037400009D0E06F816B00E02046BDE8F0410847FA
:103750002046FFF75FFFBDE8F0812046FFF75AFFE4
:10376000C4F88C50F7E7E76E2026012F7ED1C706FC
:103770007CD5CF067AD51020186220688068400674
:1037800042D5E16F086840680004000CE3D0B4F84B
:103790005C208242DFD9A4F85E00086800688006D9
:1037A0002BD4206850E8001F21F4807140E80012FB
:1037B000002AF6D12068083050E8001F21F00101EE
:1037C00040E80012002AF5D12068083050E8001FB8
:1037D00021F0400140E80012002AF5D1C4F88860C9
:1037E000E566216851E8000F20F0100041E8000272
:1037F000002AF6D1E06FFEF7A1FAB4F85C00B4F845
:103800005E10401A81B22CE0B4F85C00B4F85E108F
:10381000401A81B2B4F85E0000289CD000299AD0EA
:10382000226852E8000F20F4907042E80003002B59
:10383000F6D12E4BDB432068083050E8002F1A40A9
:1038400040E80027002FF6D1C4F88860E5662567B8
:10385000226852E8000F20F0100042E80003002B1D
:10386000F6D12046FFF786FE75E7FFE7C70209D5C8
:10387000570207D54FF4801018622046BDE8F0418A
:10388000FFF7C7BE03060AD501F0800302F4000269
:10389000134304D0616F00297FF456AF5BE7420603
:1038A00011D54A060FD52046016851E8002F22F0B5
:1038B000400241E80023002BF6D1C0F88460456740
:1038C00000F038F947E7020206D54A0004D5204641
:1038D000BDE8F041FFF79CBEC001C5D50029C3DAA1
:1038E0002046BDE8F041FFF746BE00000100001091
:1038F00020010004094B000810B5040003D0D4F8DF
:10390000840010B107E0012010BD002084F8800081
:10391000204600F027F82420C4F8840020680168BD
:1039200021F001010160204601F03AFB0128EBD0B3
:10393000A06A10B1204601F053F82068416821F4D4
:10394000904141602068816821F02A0181602068EF
:10395000016841F0010101602046BDE8104001F01E
:10396000A3B8000010B598B00446142111A8FCF7C4
:10397000ADFF44216846FCF7A9FF1B492068884237
:1039800030D101200024CDE900046846FEF786FC12
:1039900008B1FEF7B0F91548016E41F480410166A7
:1039A000016E01F480411691C16C41F00101C164C6
:1039B000C06C11A900F0010016904FF4C060119086
:1039C0000220CDE912040720CDE914404FF09040C9
:1039D000FEF738FA002211462520FEF7C7FB252006
:1039E000FEF7B6FB18B010BD0038014000100240D1
:1039F00030B4D0F88830202B20D1E1B1DAB190F882
:103A00008030012B1AD0012380F880300023C36658
:103A10000B4C0368A3420BD05B681B0208D50468FB
:103A200054E8003F43F0806344E80035002DF6D1B0
:103A300030BC01F0EFBB012030BC70470220FBE737
:103A4000008000400068084988420BD10749084BB4
:103A500008784A781A54401C08700122491C05480D
:103A6000FFF7C6BF70470000003801403400002057
:103A70004C0200209C0100202DE9F8430446D0F8B8
:103A800084001F4616460D46202851D1DDB1D6B11F
:103A900094F8800001284BD0012084F880004FF07A
:103AA0000008C4F88C802120C4F884001834FEF784
:103AB000F7FAA6878146E68754F8100C183CB0F553
:103AC000805F03D004E00120BDE8F883206920B1C5
:103AD0002E46002584F8808010E00026FAE7802139
:103AE000204601F023FCB8B9C6B116F8010B2168D5
:103AF0008862B4F85600401EA4F85600B4F8560088
:103B00004B464FF0000200970028E8D14FF04001EB
:103B1000204601F00BFC30B10320D5E735F8020B4D
:103B2000C0F30800E3E72020C4F884000020CBE7BE
:103B30000220C9E77047FEE700B585B0142168464A
:103B4000FCF7C4FE4FF6FF70009000200321CDE982
:103B50000201019069460248FEF774F905B000BD04
:103B60000008004800B585B014216846FCF7AEFE99
:103B70004FF6FF7000900120019003200390002079
:103B8000029069460248FEF75DF905B000BD0000ED
:103B90000008004870B5002406462146204600F083
:103BA00003F900F041F94FF49635304600F010F972
:103BB000641CAC42F9D370BD30B587B0142168469F
:103BC000FCF784FE1E48C16C41F00401C164C16C65
:103BD00001F004010591C16C41F00101C164C16CA7
:103BE00001F001010591C16C41F00201C164C06C9A
:103BF000012500F0020005904FF44870CDE9000562
:103C000000240394694602940E48FEF71BF928022B
:103C100003940090CDE901544FF09044694620464A
:103C2000FEF710F9FFF79EFFA06940F48070A061D5
:103C300004481830016841F40871016007B030BDD4
:103C40000010024000040048203AD2B2034B02EBBD
:103C5000420203EB021200F019B800004C5C0008AD
:103C6000F0B50E460746002540F23F1407E0214616
:103C70003846FFF7E9FF103C6D1CA4B2761C327881
:103C8000002A01D0142DF2D3F0BD00002DE9F04739
:103C900091468A460026044600F086F8DFF8408008
:103CA000012700BF00F0C0F85FF0000539F81600EA
:103CB00007FA05F10842404601D1408800E000883B
:103CC00000F086F86D1C102DF0D3641CE4B2514650
:103CD000204600F069F8761C182EE3D3BDE8F08783
:103CE0003600002010B5FFF767FF002000F014F841
:103CF000084CA080A088A0F50241303906D000F021
:103D0000D3FA002000F008F8A08010BD00F043FABC
:103D1000F7E700003600002070B51D490A6842F43C
:103D200000720A600A6842F480720A60184C103C03
:103D3000226842F020022260164A1060086840F0B3
:103D40002000086000BF00BF00BF206840F02000D6
:103D50002060206840F480702060FFF7EDFE4FF097
:103D60009041886A40F48070886200BF00BF00BF45
:103D70000848001F006885B2886940F48070886137
:103D8000FFF7F0FE206840F400702060284670BD08
:103D9000280400481408004801B5BDF80000014996
:103DA000488008BD3600002010B50C460146202092
:103DB00000F068F82146BDE81040212000F062B80C
:103DC00001B5BDF800000149088008BD360000209B
:103DD000134A116841F400711160114910390B68E0
:103DE00043F480730B600B6843F020030B600D4BB2
:103DF0001860106840F02000106000BF00BF00BFD6
:103E0000086840F020000860086840F4807008608E
:103E100000BF00BF00BF086840F400700860704732
:103E200028040048140800481449086840F4007049
:103E30000860086840F48070086010481038026814
:103E400042F0200202600E4B22221A600A6842F001
:103E500020020A6000BF00BF00BF016841F02001DE
:103E60000160016841F48071016000BF00BF00BFC4
:103E7000016841F4007101607047000028040048A7
:103E800014080048184B10B51A6842F400721A6002
:103E90001A6842F480721A60134A103A146844F0A7
:103EA00020041460114C2060186840F02000186055
:103EB00000BF00BF00BF106840F020001060106815
:103EC00040F4807010602160186840F02000186095
:103ED00000BF00BF00BF106840F0200010601068F5
:103EE00040F48070106010BD280400481408004899
:103EF0002DE9F04F87B014216846FCF7E7FC4548F0
:103F0000C16C41F00401C164C16C01F00401059170
:103F1000C16C41F02001C164C16C01F02001059128
:103F2000C16C41F00101C164C16C01F00101059156
:103F3000C16C41F00201C164C16C01F00201059144
:103F4000C16C41F00801C164C06CDFF8CC8000F0A6
:103F50000800059000224FF6FF714046FEF79BF8DF
:103F60004FF480764FF09049002231464846FEF7E4
:103F700092F8DFF8A8A0002204215046FEF78BF843
:103F8000DFF89CB04FF44877002239465846FEF7D8
:103F900082F801254FF47D40CDE900050024CDE9EC
:103FA000025469464046FDF74DFF40F2FF20009065
:103FB000CDE90154694640460394FDF743FFCDE93E
:103FC0000054694648460295FDF73CFF07208DE8FE
:103FD000310069465846FDF735FF0096CDE901549A
:103FE000694648460394FDF72DFF04200090CDE973
:103FF0000154694650460394FDF724FF0097CDE92C
:104000000154694658460394FDF71CFF07B0BDE80C
:10401000F08F00000010024000080048000C00482B
:104020000004004810B594B01C210DA8FCF74EFC0C
:1040300034216846FCF74AFC20481F4900240160EF
:1040400040F28F11C0E901146321C0E903144461F7
:104050008461FEF778FE08B1FDF74DFE1748FFF7C3
:1040600056F908B1FDF747FE60200D901420CDE908
:104070000E0410941194129400220DA90F48139469
:10408000FFF7B3F808B1FDF736FE00944FF4005087
:10409000CDE90440019402940394069469460748CC
:1040A0000C94FEF7A7FD08B1FDF725FE0348FFF7C6
:1040B00073F814B010BD000000480140500100200A
:1040C00010B588B00024174800940194029403941A
:1040D000049405941249069401604F21C0E901142B
:1040E00042F20F71C0E903148461FEF72CFE08B19F
:1040F000FDF701FE4FF48050009069460948FEF735
:10410000B9FE08B1FDF7F7FD049404A9054806942B
:10411000FEF7CAFD002801D0FDF7EDFD08B010BD87
:104120000004004004010020184810B51649016041
:104130004FF416514160002181600C22C160C0E93A
:1041400004128161C161016241628162FFF7D4FBA7
:1041500008B1FDF7D0FD00210C48FFF733FA08B194
:10416000FDF7C9FD00210948FFF706FA08B1FDF780
:10417000C2FD0648FFF7DFF9002803D0BDE8104074
:10418000FDF7B9BD10BD0000003801409C010020C2
:10419000FEE7FEE7704730B501210020FFF772FE11
:1041A0004FF47A70FDF799FD00210120FFF76AFEB8
:1041B00041F290711020FFF765FE4FF41C51602012
:1041C000FFF760FE01216120FFF75CFE022146201F
:1041D000FFF758FE48F210011320FFF753FE48F294
:1041E000FE011220FFF74EFE4FF4A0610220FFF700
:1041F00049FE41F230010320FFF744FE40F2033450
:1042000021463020FFF73EFE21463120FFF73AFEDF
:1042100021463220FFF736FEE51E29463320FFF700
:1042200031FE03213420FFF72DFE21463520FFF714
:1042300029FE14213620FFF725FE21463720FFF7FF
:1042400021FE21463820FFF71DFE21463920FFF7C9
:1042500019FE29463A20FFF715FE03213B20FFF700
:1042600011FE21463C20FFF70DFE4FF4A0513D20EA
:10427000FFF708FE4FF400719220FFF703FE21467E
:104280009320FFF7FFFD40F60D019020FFF7FAFDA8
:1042900041F218010320FFF7F5FDBDE8304040F280
:1042A00073110720FFF7EEBD10B543F20801E320BC
:1042B000FFF7E8FD1221E720FFF7E4FD41F231218D
:1042C000EF20FFF7DFFD00210120FFF7DBFD4FF4BA
:1042D000E0610220FFF7D6FD41F230010320FFF735
:1042E000D1FD00210420FFF7CDFD40F20721082079
:1042F000FFF7C8FD00210920FFF7C4FD00210A20B7
:10430000FFF7C0FD00210C20FFF7BCFD00210D20B0
:10431000FFF7B8FD00210F20FFF7B4FD00211020AA
:10432000FFF7B0FD07211120FFF7ACFD002112209F
:10433000FFF7A8FD00211320FFF7A4FDC820FDF71B
:104340006FFD41F290611020FFF79CFD40F22721A4
:104350001120FFF797FD3220FDF762FD1D2112208D
:10436000FFF790FD3220FDF75BFD4FF40061132055
:10437000FFF788FD14212920FFF784FD0B212B2056
:10438000FFF780FD3220FDF74BFD00212020FFF7D5
:1043900079FD00212120FFF775FD07213020FFF76F
:1043A00071FD40F207713120FFF76CFD06213220CC
:1043B000FFF768FD40F204713520FFF763FD41F619
:1043C00004713620FFF75EFD04213720FFF75AFD08
:1043D00000213820FFF756FD40F206713920FFF723
:1043E00051FD40F201713C20FFF74CFD0F213D20B3
:1043F000FFF748FD00215020FFF744FDEF21512039
:10440000FFF740FD00215220FFF73CFD40F23F1135
:104410005320FFF737FD4FF41C516020FFF732FDAA
:1044200001216120FFF72EFD00216A20FFF72AFD00
:1044300000218020FFF726FD00218120FFF722FDCB
:1044400000218220FFF71EFD00218320FFF71AFDC7
:1044500000218420FFF716FD00218520FFF712FDC3
:1044600010219020FFF70EFD00219220FFF70AFD9A
:1044700003219320FFF706FD4FF488719520FFF785
:1044800001FD00219720FFF7FDFC00219820FFF798
:10449000F9FC41F218010320FFF7F4FCBDE81040DD
:1044A00040F273110720FFF7EDBC7047FDF7FEBD2A
:1044B00010B594B038216846FCF708FA14210EA80C
:1044C000FCF704FA4FF40070FDF782FE0120009023
:1044D0000004019002200324CDE907041421CDE952
:1044E0000A100C900D9009946846FEF765F908B122
:1044F00072B6FEE70F20CDE90E0400201090119057
:10450000129002210EA8FEF70DF8002801D072B615
:10451000FEE714B010BD00000248016841F47001CC
:104520000160704788ED00E00148FEF737BD0000EC
:10453000040100202DE9F0430268234B234D244E53
:10454000244C4FF08049984207D0484505D0A842F6
:1045500003D0B04201D0A04203D122F070074A68D4
:104560003A431D4FDFF874C0DFF8748098420DD0D5
:1045700048450BD0A84209D0B04207D0A04205D090
:10458000B84203D0604501D0404503D122F44075C4
:10459000CA682A434D6922F080022A4302608A6871
:1045A000C2620A688262984207D0A04205D0B8422F
:1045B00003D0604501D0404501D109690163012163
:1045C0004161BDE8F0830000002C01400004004080
:1045D0000008004000340140004001400044014018
:1045E0000048014010B501F01F030121046A994001
:1045F0008C430462016A9A401143016210BD10B5F8
:10460000846842EA032224F47F440A4322438260FE
:1046100010BD00008268034B1A400A4342F00701B4
:10462000816070478FFFCFFF2DE9F043026A22F0CF
:1046300001020262056A436882691C4C25F002058A
:1046400022400C6822F0030214438A68194E2A4360
:10465000174D194FDFF864C0DFF86490A84207D007
:10466000B04205D0B84203D0604501D0484506D1DC
:1046700022F00808CA6842EA080222F00402A842AE
:1046800007D0B04205D0B84203D0604501D04845BC
:1046900005D14D6923F440731D438B692B4343605F
:1046A0008461496841630262BDE8F0838FFFFEFFC9
:1046B000002C014000340140004001400044014012
:1046C00000480140F0B5026A22F010020262056A59
:1046D00042688369194C1B4E23400C6823F44073D5
:1046E00043EA042425F020038D6843EA0513144DA2
:1046F000A84201D0B04206D1CF6823F0800343EA3C
:10470000071323F04003A8420AD0B04208D00E4D50
:10471000A84205D00D4DA84202D00D4DA84207D1A8
:104720004D6922F4406242EA85028D6942EA8502BF
:1047300042608461496881630362F0BDFF8FFFFEC0
:10474000002C014000340140004001400044014081
:1047500000480140F0B5026A22F480720262056AE4
:104760004368C269194C1B4E22400C6822F00302B8
:10477000144325F400728D6842EA0522144DA842C4
:1047800001D0B04206D1CF6822F4006242EA07228B
:1047900022F48062A8420AD0B04208D00E4DA8424E
:1047A00005D00E4DA84202D00D4DA84207D14D694B
:1047B00023F4405343EA05138D6943EA051343602C
:1047C000C4614968C1630262F0BD00008FFFFEFF53
:1047D000002C0140003401400040014000440140F1
:1047E00000480140F0B5026A22F480520262056A74
:1047F0004268C369194C1B4E23400C6823F4407374
:1048000043EA042425F400538D6843EA0533144D2C
:10481000A84201D0B04206D1CF6823F4004343EA56
:10482000073323F48043A8420AD0B04208D00E4D8B
:10483000A84205D00D4DA84202D00D4DA84207D187
:104840004D6922F4404242EA85128D6942EA85129E
:104850004260C461496801640362F0BDFF8FFFFEDE
:10486000002C014000340140004001400044014060
:104870000048014030B5026A22F480320262046AC4
:104880004268036D114D2B400D681D4324F4003325
:104890000C8943EA04430E4CA0420BD00D4CA042BD
:1048A00008D00D4CA04205D00C4CA04202D00C4CBC
:1048B000A04204D14C6922F4803242EA04224260D0
:1048C000056549688164036230BD00008FFFFEFF0B
:1048D000002C0140003401400040014000440140F0
:1048E0000048014030B5026A22F480120262046A74
:1048F0004268036D114D24F400142B400D6843EA07
:1049000005230D8944EA05540D4DA8420BD00D4DE9
:10491000A84208D00C4DA84205D00C4DA84202D0A8
:104920000B4DA84204D14D6922F4802242EA85222F
:10493000426003654968C164046230BDFF8FFFFEB9
:10494000002C01400034014000400140004401407F
:104950000048014010B5036A046A24F001040462AF
:10496000846924F0F00444EA021423F00A020A43A2
:104970008461026210BD10B5036A23F01003036264
:104980008369046A23F4704343EA023224F0A003EB
:1049900043EA01118261016210BD000030B5416E31
:1049A000B9B1026891689268C1F342610B4B520F32
:1049B0009C5CE50003F10804A25CB5FBF2F2A0F8F0
:1049C0006A205A5C615CD200B2FBF1F1A0F8681079
:1049D00030BD0121A0F86A10F8E70000245C00084F
:1049E00090F82810C90706D001684A68C36A22F403
:1049F00000321A434A6090F82810890706D50168EA
:104A00004A68036B22F480321A434A6090F82810F7
:104A1000490706D501684A68436B22F480221A438D
:104A20004A6090F82810090706D501684A68836B28
:104A300022F400421A434A6090F82810C90606D5AD
:104A400001688A68C36B22F480521A438A6090F826
:104A50002810890606D501688A68036C22F4005282
:104A60001A438A6090F82810490611D501684A68EF
:104A7000436C22F480121A434A60416CB1F5801FE6
:104A800006D101684A68836C22F4C0021A434A6066
:104A900090F82810090606D501684A68C06C22F40F
:104AA000002202434A607047F8B500260446C0F869
:104AB0008C60FDF7F5FA0546206800686FF07E47C8
:104AC000000708D52B4600224FF40011204600971E
:104AD00000F02CFC60B92068006840070AD52B461E
:104AE00000224FF480012046009700F01FFC08B11F
:104AF0000320F8BD2020C4F88400C4F8880044F8DE
:104B00006C6F00202675F8BD10B5806A0021A0F8F2
:104B10005E10A0F85610FEF77DFD10BD10B50268BE
:104B200052E8001F21F4907142E80013002BF6D1E7
:104B30000E4B0268083252E8001F194042E8001488
:104B4000002CF6D1C16E012908D1016851E8002F6F
:104B500022F0100241E80023002BF6D12021C0F8FA
:104B600088100021C166016710BD0000FEFFFFEF45
:104B700010B5B0F86020D0F888300168222B04D03E
:104B8000886940F00800886110BD496A836D114052
:104B90001980816D891C8165B0F85E10491EA0F8EE
:104BA0005E10B0F85E100029EED1026852E8001FD6
:104BB00021F4907142E80013002BF6D1016808310E
:104BC00051E8002F22F0010241E80023002BF5D12B
:104BD0002021C0F8881000210167C26E012A02D08E
:104BE000FEF730FF10BDC166026852E8001F21F0D9
:104BF000100142E80013002BF6D10168CA69D243C4
:104C0000D20601D410220A62B0F85C10FEF7B2FCA2
:104C100010BD00002DE9F0470446B0F86060006860
:104C2000C569D0F800A0D0F80880D4F888102229EF
:104C300005D0816941F008018161BDE8F087B4F8D1
:104C400068704FF0000963E02068406AA16D304051
:104C50000880A06D801CA065B4F85E00401EA4F81A
:104C60005E002068C569690730D0E9070AD05FEAAD
:104C7000CA5107D501210162D4F88C0040F001002F
:104C8000C4F88C00A8070BD55FEAC87008D021686B
:104C900002200862D4F88C0040F00400C4F88C00B4
:104CA00068070BD55FEAC87008D021680420086245
:104CB000D4F88C0040F00200C4F88C00D4F88C00CA
:104CC00020B12046FEF7A6FCC4F88C90B4F85E0034
:104CD000F0B9216851E8000F20F4807041E800022B
:104CE000002AF6D1264A2068083050E8001F1140FB
:104CF00040E80013002BF6D12020C4F88800C4F847
:104D00007090E16E4846012923D02046FEF79AFEB6
:104D10000FB1A80698D4B4F85E0000288DD0B4F87E
:104D20006810814289D92068083050E8001F21F0BE
:104D3000805140E80012002AF5D11248206720680F
:104D400050E8001F41F0200140E80012002AF6D18F
:104D500073E7E066216851E8000F20F0100041E899
:104D60000002002AF6D12068C169C943C90601D4EE
:104D700010210162B4F85C102046FEF7FBFBC7E788
:104D8000FEFFFFEF714B000810B5B0F86020D0F8BF
:104D900088300168222B04D0886940F008008861BF
:104DA00010BD496A1140826D1170816D491C816589
:104DB000B0F85E10491EA0F85E10B0F85E10002931
:104DC000EED1026852E8001F21F4907142E800130E
:104DD000002BF6D10168083151E8002F22F00102C2
:104DE00041E80023002BF5D12021C0F888100021D4
:104DF0000167C26E012A02D0FEF724FE10BDC16613
:104E0000026852E8001F21F0100142E80013002B55
:104E1000F6D10168CA69D243D20601D410220A62CF
:104E2000B0F85C10FEF7A6FB10BD00002DE9F047BE
:104E30000446B0F860600068C569D0F800A0D0F8FA
:104E40000880D4F88810222905D0816941F0080132
:104E50008161BDE8F087B4F868704FF0000963E045
:104E60002068406AA16D30400870A06D401CA065AC
:104E7000B4F85E00401EA4F85E002068C5696907AA
:104E800030D0E9070AD05FEACA5107D50121016293
:104E9000D4F88C0040F00100C4F88C00A8070BD5B2
:104EA0005FEAC87008D0216802200862D4F88C003C
:104EB00040F00400C4F88C0068070BD55FEAC870A6
:104EC00008D0216804200862D4F88C0040F0020069
:104ED000C4F88C00D4F88C0020B12046FEF79AFB71
:104EE000C4F88C90B4F85E00F0B9216851E8000F66
:104EF00020F4807041E80002002AF6D1264A20689A
:104F0000083050E8001F114040E80013002BF6D194
:104F10002020C4F88800C4F87090E16E484601294A
:104F200023D02046FEF78EFD0FB1A80698D4B4F822
:104F30005E0000288DD0B4F86810814289D92068BD
:104F4000083050E8001F21F0805140E80012002A8C
:104F5000F5D112482067216851E8000F40F0200089
:104F600041E80002002AF6D173E7E066216851E8C3
:104F7000000F20F0100041E80002002AF6D120685E
:104F8000C169C943C90601D410210162B4F85C109B
:104F90002046FEF7EFFAC7E7FEFFFFEF894D000856
:104FA0002DE9F0410446016880682269E3691043F5
:104FB000626900251A431043DFF82CC20A688B4B44
:104FC0001A4002430A6020684168E26821F44051B7
:104FD000114341602168A069614501D0226A1043F4
:104FE0008A68834B1A4002438A602068C16A626AF9
:104FF00021F00F011143C1627E4923687E488B4234
:105000000DD1D0F8880010F0030006D0012855D04B
:10501000022842D003283FD152E001203DE07749E9
:105020008B420BD1D0F8880010F00C0035D004284A
:1050300033D0082840D00C282ED141E070498B4253
:105040000BD1D0F8880010F0300026D0102835D0D1
:10505000202831D030281FD132E06A498B420BD151
:10506000D0F8880010F0C00017D0402826D0802843
:1050700022D0C02810D123E063450DD1D0F888009C
:1050800010F4406009D0B0F5806F17D0B0F5006F14
:1050900012D0B0F5406F13D010205B495B4F002653
:1050A0004FF4004263453BD160B1022813D004287D
:1050B0000BD0082872D10DE00220EEE70420ECE7C7
:1050C0000820EAE7FDF71CFB01E0FDF73DFB0100CE
:1050D00001D17CE01146606A37F810206768B1FBA7
:1050E000F2F007EB4703834270D8B0EB073F6DD86F
:1050F000002308461946FBF7F7F8090241EA106158
:1051000002027808101871413A460023FBF7ECF8C8
:105110003F4AA0F54071914258D82168C86056E0D6
:10512000E3694FF6EF7893422CD109284ED2DFE89D
:1051300000F00508114D0D4D4D4D1000FDF7E0FA42
:1051400001E0FDF7EFFA010004D140E0FDF7FCFAC1
:10515000F9E71146606A37F81000B1FBF0F0410042
:10516000606801EB5001B1FBF0F0A0F11001414586
:105170002CD84FF6F0710140C0F342000143206883
:10518000C16024E0092821D2DFE800F005091220DF
:105190000E2020201100FDF7B3FA02E016E0FDF723
:1051A000C1FA010004D112E0FDF7CEFAF9E7114689
:1051B000606A37F81000B1FBF0F1606801EB500154
:1051C000B1FBF0F0A0F1100141450AD90125012001
:1051D000A4F86A0024F8680F2846A660E660BDE8D7
:1051E000F08180B299E7000000800040F369FFCFB2
:1051F000FFF4FF110038014000100240004400405D
:1052000000480040004C00400024F4000C5C000802
:10521000FFFC0F0070B58165A0F85C20A0F85E204F
:105220000021016783684FF48055FF24AB4204D10D
:105230000369FBB940F2FF1322E07F26C3B1B3F14B
:10524000805F1AD0A0F86010C0F88C102223C0F83C
:1052500088300368083353E8004F44F0010443E802
:105260000046002EF5D1436EB3F1005F0ED032E060
:10527000036943B9A0F86040E6E703691BB13F2327
:10528000A0F86030E0E7A0F86060DDE7B0F86830D3
:10529000934220D88268AA4201D10269CAB11F4A4A
:1052A000026780F88010016941B1026852E8001F6E
:1052B00041F4807142E80013002BF6D101680831F7
:1052C00051E8002F42F0805241E80023002BF5D135
:1052D00021E0134AE4E78268AA4201D102697AB167
:1052E000104A026780F88010016959B1026852E8DB
:1052F000001F41F4907142E80013002BF6D10AE040
:10530000094AEEE7026852E8001F41F0200142E836
:105310000013002BF6D1002070BD00002D4E0008B8
:10532000154C0008894D0008714B00082DE9F04725
:105330009A4617460E4604464FF000094FF02008E3
:10534000089D4AE0681C48D0FCF7AAFEA0EB0A00C2
:10535000A8422AD84DB32068016849073DD5C069E5
:10536000C043000539D421684FF40060086220680A
:1053700050E8001F21F4D07140E80012002AF6D155
:105380002068083050E8001F21F0010140E80012B9
:10539000002AF5D144F8848FC4F80480C4F808804A
:1053A00004F8049C0320BDE8F087216851E8000F51
:1053B00020F4D07041E80002002AF6D120680830BD
:1053C00050E8001F21F0010140E80012002AF5D149
:1053D00044F8848FC4F80480E2E72068C06936EAA4
:1053E000000004D00020B842ACD00020DBE7012050
:1053F000F9E700000148FEF70FB900009C0100200A
:10540000FEE703B401984100009850EAC12018BF9C
:1054100004204A0D18BF40F0010040F2FF72B2EBC9
:10542000515F08BF40F00200012808BF052002B00C
:1054300070470907090E002804DB00F1E02080F81E
:105440000014704700F00F0000F1E02080F8141DF8
:10545000704730380A2801D2012070470020704779
:1054600070B50E4C0E486278016832B100254D636C
:105470000121FDF77FFDA57070BD40F28F128A6299
:1054800002686321D162C160006814214163012177
:105490000348FDF76FFD0120A07070BD00000020E3
:1054A00050010020044900200A5C002A03D0401C5F
:1054B000C0B20828F8D370471A000020204A002103
:1054C00020489378012B07D1917003785B1CDBB2E5
:1054D0000370012B00D90170937AB6EE000A012BFC
:1054E0000FD191720378012B0BD1D0ED020A70EE2F
:1054F000800AC0ED020AD0ED030A70EE800AC0ED0A
:10550000030A937C012B0FD191740378012B0BD1EB
:10551000D0ED020A70EEC00AC0ED020AD0ED030A17
:1055200030EEC00A80ED030A937E012B07D19176FD
:105530004278521CD2B24270012A00D941707047A1
:105540002C020020000000200A4801464279897997
:1055500012B141F0010101E001F0FE018171817899
:105560000129817903D001F0CF018171704741F0A9
:105570003001FAE70000002070B50D4D044601220D
:105580004FF6FF712846FCF786FD210200222846CF
:10559000FCF781FD074C012204212046FCF77BFD2E
:1055A0002046BDE8704000220421FCF774BD0000D5
:1055B00000080048000C0048FCF780FDFEF778FF6B
:1055C000FEF796FCFEF77CFDFEF72CFDFEF7ACFD2A
:1055D000FEF788FB1848FDF711FC0122174918480F
:1055E000FEF706FA00211748FDF7C4FE0020FEF77B
:1055F000D1FA0020FEF7D0FB4FF6FF70FEF7E0FB7C
:105600000020FFF7B9FF104C104E25783DB1012066
:10561000FCF706FC2078854201D100F019F8FFF76D
:105620004DFF00F0AFF9FFF71BFFFFF78DFFB079DB
:10563000FFF7A2FFE9E70000040100203500002089
:105640009C010020500100203400002000000020B8
:105650002DE9F04FB6498DB00A200A5C303A092A8C
:1056600004D80124401C1628F7D300E00024B148D8
:10567000007816287ED10422AFA1AD48FBF7B9F817
:1056800030B10422AEA1AA48FBF7B3F8002871D1CB
:10569000002C6FD0AD4BDFF8B0825A1FACA1A448EC
:1056A000CDF80080FAF7D4FFA849481FFCF726FB85
:1056B000DFF898B2A8F168050BF1050B0646ABF1CF
:1056C0001A04A5F15007A5F12809082873D006EBA4
:1056D000860000EBC60041196FF02F02087998F898
:1056E00004504B7900EB800002EB400098F805C0B5
:1056F00005EB8505034402EB45056544EB1A8D79FE
:1057000091F807C0303D05EB8505404602EB4505A5
:10571000654490F806C098F80780ACF1300C0CEBAB
:105720008C0C02EB4C02424403EB430302EBC3023A
:10573000521BD5B20A7ACB7A303A02EB420CCCEB50
:10574000C21203EBC2024B7A8A464FF0640C13FB81
:105750000CF39AF80A1001EB810103EB41011144AB
:10576000027AC37A303A02EB420CCCEBC21203EB62
:10577000C20200E02CE0437A4FF0640C13FB0CF300
:10578000807AA1F5A05100EB800003EB40001044AB
:10579000A0F5A050D038D039401A002801DD6D1C8A
:1057A000EDB26A490422491F65A0FBF722F80028E0
:1057B0004DD073E0FFE7FFF775FEE071082807D0D2
:1057C00062490422491F5EA0FBF713F870B113E091
:1057D00063A16846FAF700FE6846FAF7EBFF82B26B
:1057E000322369466048FEF747F996E0E078401CAE
:1057F000E0706079401E607154490422491F4EA038
:10580000FAF7F7FF28B92079401C20716079401E13
:105810006071E0794D4900EB80003844491FFAF788
:10582000A5FFE07900EB800101EB09004749FAF799
:105830009DFFE07900EB800101EBC0002844424964
:10584000FAF794FFE27901210BF8021065E000EE0F
:10585000105AD4ED020AB8EE400A20EE200A10EEEB
:10586000100A00F05BF9CDE9020106EB860000EBBF
:105870000903C21900953DA104A8FAF7ADFD04A8DB
:10588000FAF798FF82B2322304A93748FEF7F4F8FA
:10589000E078401EE0706079401C60712B49042262
:1058A000491F25A0FAF7A5FF30BB00EE105AD4ED32
:1058B000030AB8EE400A20EE200A10EE100A00F0AB
:1058C0002DF9CDE9020106EB860000EB0903C219B0
:1058D000009526A104A8FAF77FFD04A8FAF76AFF4D
:1058E00082B2322304A92048FEF7C6F82079401E70
:1058F00020716079401C607106EB860020A2C119FE
:1059000012880A801EA14844098801801CA1002039
:105910000988AAF800100BF8060006490020087054
:105920000DB01E21BDE8F04F0148FAF7ADBF0000F1
:105930004C02002034000020564E4252000000006D
:10594000434E425200000000F400002015000020E9
:105950002534733A2534733A253132730000000040
:105960004572726F720A00009C0100202534733A60
:105970002534733A253032643A252E32660A000007
:105980003000000010B5274C88B0207800281ED1C8
:1059900025A11820FEF764F9E27827A16846FAF7F6
:1059A0001BFD69464820FEF75BF9227926A168466F
:1059B000FAF712FD69467820FEF752F9627926A1BE
:1059C0006846FAF709FD6946A820FEF749F92078EC
:1059D000012825D124A11820FEF742F9A06800F083
:1059E0009DF841EC100B25A153EC102B6846FAF7FB
:1059F000F3FC69464820FEF733F9E06800F08EF8C2
:105A000041EC100B22A153EC102B6846FAF7E4FC92
:105A100069467820FEF724F922A1A820FEF720F994
:105A200008B010BD000000202020202020202044AD
:105A30006174612020202000202020434E42523AF1
:105A40002564202020202000202020564E42523A5B
:105A5000256420202020200020202049444C453A65
:105A600025642020202020002020202020202050DD
:105A7000617261202020202020200000202020436F
:105A80004E42523A252E326620202020202000004F
:105A9000202020564E42523A252E326620202020C9
:105AA0002020000020202020202020202020202036
:105AB000202020202020200010B500290AD00878BE
:105AC000002807D005487844FBF7F6FC002801D0F1
:105AD000002010BD0248784410BD00001E140000D4
